{
    "_format": "hh-sol-artifact-1",
    "contractName": "DecentralizedSocial",
    "sourceName": "contracts/DecentralizedSocial.sol",
    "abi": [
        {
            "inputs": [
                {
                    "internalType": "uint256",
                    "name": "",
                    "type": "uint256"
                }
            ],
            "name": "allPosts",
            "outputs": [
                {
                    "internalType": "string",
                    "name": "content",
                    "type": "string"
                },
                {
                    "internalType": "address",
                    "name": "poster",
                    "type": "address"
                },
                {
                    "internalType": "uint256",
                    "name": "timestamp",
                    "type": "uint256"
                },
                {
                    "internalType": "uint256",
                    "name": "upvotes",
                    "type": "uint256"
                },
                {
                    "internalType": "uint256",
                    "name": "downvotes",
                    "type": "uint256"
                },
                {
                    "internalType": "uint256",
                    "name": "id",
                    "type": "uint256"
                }
            ],
            "stateMutability": "view",
            "type": "function"
        },
        {
            "inputs": [
                {
                    "internalType": "address",
                    "name": "",
                    "type": "address"
                },
                {
                    "internalType": "uint256",
                    "name": "",
                    "type": "uint256"
                }
            ],
            "name": "allUserToPosts",
            "outputs": [
                {
                    "internalType": "string",
                    "name": "content",
                    "type": "string"
                },
                {
                    "internalType": "address",
                    "name": "poster",
                    "type": "address"
                },
                {
                    "internalType": "uint256",
                    "name": "timestamp",
                    "type": "uint256"
                },
                {
                    "internalType": "uint256",
                    "name": "upvotes",
                    "type": "uint256"
                },
                {
                    "internalType": "uint256",
                    "name": "downvotes",
                    "type": "uint256"
                },
                {
                    "internalType": "uint256",
                    "name": "id",
                    "type": "uint256"
                }
            ],
            "stateMutability": "view",
            "type": "function"
        },
        {
            "inputs": [
                {
                    "internalType": "string",
                    "name": "_content",
                    "type": "string"
                }
            ],
            "name": "createPost",
            "outputs": [],
            "stateMutability": "nonpayable",
            "type": "function"
        },
        {
            "inputs": [
                {
                    "internalType": "uint256",
                    "name": "_index",
                    "type": "uint256"
                }
            ],
            "name": "downvotePost",
            "outputs": [],
            "stateMutability": "view",
            "type": "function"
        },
        {
            "inputs": [],
            "name": "getAllPosts",
            "outputs": [
                {
                    "components": [
                        {
                            "internalType": "string",
                            "name": "content",
                            "type": "string"
                        },
                        {
                            "internalType": "address",
                            "name": "poster",
                            "type": "address"
                        },
                        {
                            "internalType": "uint256",
                            "name": "timestamp",
                            "type": "uint256"
                        },
                        {
                            "internalType": "uint256",
                            "name": "upvotes",
                            "type": "uint256"
                        },
                        {
                            "internalType": "uint256",
                            "name": "downvotes",
                            "type": "uint256"
                        },
                        {
                            "internalType": "uint256",
                            "name": "id",
                            "type": "uint256"
                        }
                    ],
                    "internalType": "struct DecentralizedSocial.Post[]",
                    "name": "",
                    "type": "tuple[]"
                }
            ],
            "stateMutability": "view",
            "type": "function"
        },
        {
            "inputs": [
                {
                    "internalType": "address",
                    "name": "_user",
                    "type": "address"
                }
            ],
            "name": "getAllPostsForAUser",
            "outputs": [
                {
                    "components": [
                        {
                            "internalType": "string",
                            "name": "content",
                            "type": "string"
                        },
                        {
                            "internalType": "address",
                            "name": "poster",
                            "type": "address"
                        },
                        {
                            "internalType": "uint256",
                            "name": "timestamp",
                            "type": "uint256"
                        },
                        {
                            "internalType": "uint256",
                            "name": "upvotes",
                            "type": "uint256"
                        },
                        {
                            "internalType": "uint256",
                            "name": "downvotes",
                            "type": "uint256"
                        },
                        {
                            "internalType": "uint256",
                            "name": "id",
                            "type": "uint256"
                        }
                    ],
                    "internalType": "struct DecentralizedSocial.Post[]",
                    "name": "",
                    "type": "tuple[]"
                }
            ],
            "stateMutability": "view",
            "type": "function"
        },
        {
            "inputs": [
                {
                    "internalType": "uint256",
                    "name": "_index",
                    "type": "uint256"
                }
            ],
            "name": "getPostByUserID",
            "outputs": [
                {
                    "components": [
                        {
                            "internalType": "string",
                            "name": "content",
                            "type": "string"
                        },
                        {
                            "internalType": "address",
                            "name": "poster",
                            "type": "address"
                        },
                        {
                            "internalType": "uint256",
                            "name": "timestamp",
                            "type": "uint256"
                        },
                        {
                            "internalType": "uint256",
                            "name": "upvotes",
                            "type": "uint256"
                        },
                        {
                            "internalType": "uint256",
                            "name": "downvotes",
                            "type": "uint256"
                        },
                        {
                            "internalType": "uint256",
                            "name": "id",
                            "type": "uint256"
                        }
                    ],
                    "internalType": "struct DecentralizedSocial.Post",
                    "name": "",
                    "type": "tuple"
                }
            ],
            "stateMutability": "view",
            "type": "function"
        },
        {
            "inputs": [
                {
                    "internalType": "uint256",
                    "name": "_index",
                    "type": "uint256"
                }
            ],
            "name": "upvotePost",
            "outputs": [],
            "stateMutability": "view",
            "type": "function"
        }
    ],
    "bytecode": "0x608060405234801561001057600080fd5b50610e31806100206000396000f3fe608060405234801561001057600080fd5b50600436106100885760003560e01c80638d2f82681161005b5780638d2f826814610103578063bdded23514610118578063c7303c611461012b578063da5ce8111461013e57610088565b80630aa447b31461008d57806318ddab9b146100b657806330561100146100d6578063718ce2bc146100de575b600080fd5b6100a061009b366004610be2565b610151565b6040516100ad9190610d44565b60405180910390f35b6100c96100c4366004610af7565b61029b565b6040516100ad9190610c9f565b6100c96103e3565b6100f16100ec366004610be2565b610515565b6040516100ad96959493929190610cff565b610116610111366004610be2565b6105f4565b005b6100f1610126366004610b18565b610718565b610116610139366004610b41565b610758565b61011661014c366004610be2565b6108eb565b610159610a08565b60025461ffff16821061017c57634e487b7160e01b600052600160045260246000fd5b3360009081526001602052604081208054849081106101ab57634e487b7160e01b600052603260045260246000fd5b90600052602060002090600602016040518060c00160405290816000820180546101d490610d57565b80601f016020809104026020016040519081016040528092919081815260200182805461020090610d57565b801561024d5780601f106102225761010080835404028352916020019161024d565b820191906000526020600020905b81548152906001019060200180831161023057829003601f168201915b505050918352505060018201546001600160a01b0316602082015260028201546040820152600382015460608201526004820154608082015260059091015460a0909101529150505b919050565b6001600160a01b0381166000908152600160209081526040808320805482518185028101850190935280835260609492939192909184015b828210156103d857838290600052602060002090600602016040518060c001604052908160008201805461030690610d57565b80601f016020809104026020016040519081016040528092919081815260200182805461033290610d57565b801561037f5780601f106103545761010080835404028352916020019161037f565b820191906000526020600020905b81548152906001019060200180831161036257829003601f168201915b50505091835250506001828101546001600160a01b031660208084019190915260028401546040840152600384015460608401526004840154608084015260059093015460a090920191909152918352920191016102d3565b505050509050919050565b60606000805480602002602001604051908101604052809291908181526020016000905b8282101561050c57838290600052602060002090600602016040518060c001604052908160008201805461043a90610d57565b80601f016020809104026020016040519081016040528092919081815260200182805461046690610d57565b80156104b35780601f10610488576101008083540402835291602001916104b3565b820191906000526020600020905b81548152906001019060200180831161049657829003601f168201915b50505091835250506001828101546001600160a01b031660208084019190915260028401546040840152600384015460608401526004840154608084015260059093015460a09092019190915291835292019101610407565b50505050905090565b6000818154811061052557600080fd5b906000526020600020906006020160009150905080600001805461054890610d57565b80601f016020809104026020016040519081016040528092919081815260200182805461057490610d57565b80156105c15780601f10610596576101008083540402835291602001916105c1565b820191906000526020600020905b8154815290600101906020018083116105a457829003601f168201915b505050600184015460028501546003860154600487015460059097015495966001600160a01b0390931695919450925086565b600080828154811061061657634e487b7160e01b600052603260045260246000fd5b90600052602060002090600602016040518060c001604052908160008201805461063f90610d57565b80601f016020809104026020016040519081016040528092919081815260200182805461066b90610d57565b80156106b85780601f1061068d576101008083540402835291602001916106b8565b820191906000526020600020905b81548152906001019060200180831161069b57829003601f168201915b505050918352505060018201546001600160a01b031660208201526002820154604082015260038201546060808301919091526004830154608083015260059092015460a0909101528101805191925061071182610db4565b9052505050565b6001602052816000526040600020818154811061073457600080fd5b90600052602060002090600602016000915091505080600001805461054890610d57565b6040805160c08101825282815233602080830182905242838501526000606084018190526080840181905260025461ffff1660a085015291825260018082529382208054948501815582529081902082518051939485946006909102909201926107c792849290910190610a47565b50602082810151600180840180546001600160a01b039093166001600160a01b03199093169290921790915560408401516002840155606084015160038401556080840151600484015560a09093015160059092019190915560008054928301815580528251805184936006027f290decd9548b62a8d60345a988386fc84ba6bc95484008f6362f93160ef3e5630192610865928492910190610a47565b5060208201516001820180546001600160a01b0319166001600160a01b039092169190911790556040820151600280830191909155606083015160038301556080830151600483015560a090920151600590910155805461ffff169060006108cc83610d92565b91906101000a81548161ffff021916908361ffff160217905550505050565b600080828154811061090d57634e487b7160e01b600052603260045260246000fd5b90600052602060002090600602016040518060c001604052908160008201805461093690610d57565b80601f016020809104026020016040519081016040528092919081815260200182805461096290610d57565b80156109af5780601f10610984576101008083540402835291602001916109af565b820191906000526020600020905b81548152906001019060200180831161099257829003601f168201915b505050918352505060018201546001600160a01b031660208201526002820154604082015260038201546060820152600482015460808083019190915260059092015460a0909101528101805191925061071182610db4565b6040518060c001604052806060815260200160006001600160a01b03168152602001600081526020016000815260200160008152602001600081525090565b828054610a5390610d57565b90600052602060002090601f016020900481019282610a755760008555610abb565b82601f10610a8e57805160ff1916838001178555610abb565b82800160010185558215610abb579182015b82811115610abb578251825591602001919060010190610aa0565b50610ac7929150610acb565b5090565b5b80821115610ac75760008155600101610acc565b80356001600160a01b038116811461029657600080fd5b600060208284031215610b08578081fd5b610b1182610ae0565b9392505050565b60008060408385031215610b2a578081fd5b610b3383610ae0565b946020939093013593505050565b60006020808385031215610b53578182fd5b823567ffffffffffffffff80821115610b6a578384fd5b818501915085601f830112610b7d578384fd5b813581811115610b8f57610b8f610de5565b604051601f8201601f1916810185018381118282101715610bb257610bb2610de5565b6040528181528382018501881015610bc8578586fd5b818585018683013790810190930193909352509392505050565b600060208284031215610bf3578081fd5b5035919050565b60008151808452815b81811015610c1f57602081850181015186830182015201610c03565b81811115610c305782602083870101525b50601f01601f19169290920160200192915050565b6000815160c08452610c5a60c0850182610bfa565b6020848101516001600160a01b03169086015260408085015190860152606080850151908601526080808501519086015260a093840151949093019390935250919050565b6000602080830181845280855180835260408601915060408482028701019250838701855b82811015610cf257603f19888603018452610ce0858351610c45565b94509285019290850190600101610cc4565b5092979650505050505050565b600060c08252610d1260c0830189610bfa565b6001600160a01b039790971660208301525060408101949094526060840192909252608083015260a090910152919050565b600060208252610b116020830184610c45565b600281046001821680610d6b57607f821691505b60208210811415610d8c57634e487b7160e01b600052602260045260246000fd5b50919050565b600061ffff80831681811415610daa57610daa610dcf565b6001019392505050565b6000600019821415610dc857610dc8610dcf565b5060010190565b634e487b7160e01b600052601160045260246000fd5b634e487b7160e01b600052604160045260246000fdfea264697066735822122042ef3d9a2a9533e61668e17d7482c7df56693163f0b154abd9adc29a6fb46e3964736f6c63430008000033",
    "linkReferences": {},
    "deployedLinkReferences": {}
}